{
  "_format": "hh-sol-artifact-1",
  "contractName": "EtherRiftCore",
  "sourceName": "contracts/EtherRiftCore.sol",
  "abi": [
    {
      "inputs": [
        {
          "internalType": "address",
          "name": "_achievementToken",
          "type": "address"
        }
      ],
      "stateMutability": "nonpayable",
      "type": "constructor"
    },
    {
      "inputs": [],
      "name": "EnforcedPause",
      "type": "error"
    },
    {
      "inputs": [],
      "name": "ExpectedPause",
      "type": "error"
    },
    {
      "inputs": [
        {
          "internalType": "address",
          "name": "owner",
          "type": "address"
        }
      ],
      "name": "OwnableInvalidOwner",
      "type": "error"
    },
    {
      "inputs": [
        {
          "internalType": "address",
          "name": "account",
          "type": "address"
        }
      ],
      "name": "OwnableUnauthorizedAccount",
      "type": "error"
    },
    {
      "anonymous": false,
      "inputs": [
        {
          "indexed": true,
          "internalType": "address",
          "name": "player",
          "type": "address"
        },
        {
          "indexed": false,
          "internalType": "string",
          "name": "achievement",
          "type": "string"
        },
        {
          "indexed": false,
          "internalType": "uint256",
          "name": "tokenAmount",
          "type": "uint256"
        }
      ],
      "name": "AchievementUnlocked",
      "type": "event"
    },
    {
      "anonymous": false,
      "inputs": [
        {
          "indexed": true,
          "internalType": "address",
          "name": "previousOwner",
          "type": "address"
        },
        {
          "indexed": true,
          "internalType": "address",
          "name": "newOwner",
          "type": "address"
        }
      ],
      "name": "OwnershipTransferred",
      "type": "event"
    },
    {
      "anonymous": false,
      "inputs": [
        {
          "indexed": false,
          "internalType": "address",
          "name": "account",
          "type": "address"
        }
      ],
      "name": "Paused",
      "type": "event"
    },
    {
      "anonymous": false,
      "inputs": [
        {
          "indexed": true,
          "internalType": "address",
          "name": "player",
          "type": "address"
        }
      ],
      "name": "PlayerRegistered",
      "type": "event"
    },
    {
      "anonymous": false,
      "inputs": [
        {
          "indexed": true,
          "internalType": "address",
          "name": "player",
          "type": "address"
        },
        {
          "indexed": false,
          "internalType": "string",
          "name": "scenario",
          "type": "string"
        },
        {
          "indexed": false,
          "internalType": "uint256",
          "name": "amount",
          "type": "uint256"
        }
      ],
      "name": "TradeRecorded",
      "type": "event"
    },
    {
      "anonymous": false,
      "inputs": [
        {
          "indexed": false,
          "internalType": "address",
          "name": "account",
          "type": "address"
        }
      ],
      "name": "Unpaused",
      "type": "event"
    },
    {
      "inputs": [],
      "name": "COLLATERALIZATION_RATIO",
      "outputs": [
        {
          "internalType": "uint256",
          "name": "",
          "type": "uint256"
        }
      ],
      "stateMutability": "view",
      "type": "function"
    },
    {
      "inputs": [],
      "name": "FLASH_LOAN_FEE",
      "outputs": [
        {
          "internalType": "uint256",
          "name": "",
          "type": "uint256"
        }
      ],
      "stateMutability": "view",
      "type": "function"
    },
    {
      "inputs": [],
      "name": "LIQUIDATION_PENALTY",
      "outputs": [
        {
          "internalType": "uint256",
          "name": "",
          "type": "uint256"
        }
      ],
      "stateMutability": "view",
      "type": "function"
    },
    {
      "inputs": [],
      "name": "LIQUIDATION_THRESHOLD",
      "outputs": [
        {
          "internalType": "uint256",
          "name": "",
          "type": "uint256"
        }
      ],
      "stateMutability": "view",
      "type": "function"
    },
    {
      "inputs": [],
      "name": "achievementToken",
      "outputs": [
        {
          "internalType": "contract AchievementToken",
          "name": "",
          "type": "address"
        }
      ],
      "stateMutability": "view",
      "type": "function"
    },
    {
      "inputs": [
        {
          "internalType": "address",
          "name": "_player",
          "type": "address"
        }
      ],
      "name": "getPlayerInfo",
      "outputs": [
        {
          "internalType": "bool",
          "name": "isRegistered",
          "type": "bool"
        },
        {
          "internalType": "uint256",
          "name": "tradesCompleted",
          "type": "uint256"
        },
        {
          "internalType": "uint256",
          "name": "totalVolume",
          "type": "uint256"
        }
      ],
      "stateMutability": "view",
      "type": "function"
    },
    {
      "inputs": [
        {
          "internalType": "address",
          "name": "_player",
          "type": "address"
        },
        {
          "internalType": "string",
          "name": "_scenario",
          "type": "string"
        }
      ],
      "name": "getPlayerTradeHistory",
      "outputs": [
        {
          "internalType": "uint256",
          "name": "",
          "type": "uint256"
        }
      ],
      "stateMutability": "view",
      "type": "function"
    },
    {
      "inputs": [
        {
          "internalType": "address",
          "name": "_token",
          "type": "address"
        }
      ],
      "name": "getTokenPrice",
      "outputs": [
        {
          "internalType": "uint256",
          "name": "",
          "type": "uint256"
        }
      ],
      "stateMutability": "view",
      "type": "function"
    },
    {
      "inputs": [
        {
          "internalType": "address",
          "name": "_token",
          "type": "address"
        },
        {
          "internalType": "uint256",
          "name": "_amount",
          "type": "uint256"
        }
      ],
      "name": "getTokenValue",
      "outputs": [
        {
          "internalType": "uint256",
          "name": "",
          "type": "uint256"
        }
      ],
      "stateMutability": "view",
      "type": "function"
    },
    {
      "inputs": [
        {
          "internalType": "address",
          "name": "_user",
          "type": "address"
        },
        {
          "internalType": "address",
          "name": "_token",
          "type": "address"
        }
      ],
      "name": "getUserBalance",
      "outputs": [
        {
          "internalType": "uint256",
          "name": "",
          "type": "uint256"
        }
      ],
      "stateMutability": "view",
      "type": "function"
    },
    {
      "inputs": [
        {
          "internalType": "address",
          "name": "_user",
          "type": "address"
        },
        {
          "internalType": "address",
          "name": "_token",
          "type": "address"
        }
      ],
      "name": "getUserCollateral",
      "outputs": [
        {
          "internalType": "uint256",
          "name": "",
          "type": "uint256"
        }
      ],
      "stateMutability": "view",
      "type": "function"
    },
    {
      "inputs": [
        {
          "internalType": "address",
          "name": "_user",
          "type": "address"
        },
        {
          "internalType": "address",
          "name": "_token",
          "type": "address"
        }
      ],
      "name": "getUserDebt",
      "outputs": [
        {
          "internalType": "uint256",
          "name": "",
          "type": "uint256"
        }
      ],
      "stateMutability": "view",
      "type": "function"
    },
    {
      "inputs": [
        {
          "internalType": "address",
          "name": "_user",
          "type": "address"
        },
        {
          "internalType": "address",
          "name": "_token",
          "type": "address"
        }
      ],
      "name": "getUserStaked",
      "outputs": [
        {
          "internalType": "uint256",
          "name": "",
          "type": "uint256"
        }
      ],
      "stateMutability": "view",
      "type": "function"
    },
    {
      "inputs": [
        {
          "internalType": "address",
          "name": "_token",
          "type": "address"
        }
      ],
      "name": "isTokenSupported",
      "outputs": [
        {
          "internalType": "bool",
          "name": "",
          "type": "bool"
        }
      ],
      "stateMutability": "view",
      "type": "function"
    },
    {
      "inputs": [],
      "name": "owner",
      "outputs": [
        {
          "internalType": "address",
          "name": "",
          "type": "address"
        }
      ],
      "stateMutability": "view",
      "type": "function"
    },
    {
      "inputs": [],
      "name": "paused",
      "outputs": [
        {
          "internalType": "bool",
          "name": "",
          "type": "bool"
        }
      ],
      "stateMutability": "view",
      "type": "function"
    },
    {
      "inputs": [
        {
          "internalType": "address",
          "name": "",
          "type": "address"
        }
      ],
      "name": "players",
      "outputs": [
        {
          "internalType": "bool",
          "name": "isRegistered",
          "type": "bool"
        },
        {
          "internalType": "uint256",
          "name": "tradesCompleted",
          "type": "uint256"
        },
        {
          "internalType": "uint256",
          "name": "totalVolume",
          "type": "uint256"
        }
      ],
      "stateMutability": "view",
      "type": "function"
    },
    {
      "inputs": [
        {
          "internalType": "string",
          "name": "_scenario",
          "type": "string"
        },
        {
          "internalType": "uint256",
          "name": "_amount",
          "type": "uint256"
        }
      ],
      "name": "recordTrade",
      "outputs": [],
      "stateMutability": "nonpayable",
      "type": "function"
    },
    {
      "inputs": [],
      "name": "register",
      "outputs": [],
      "stateMutability": "nonpayable",
      "type": "function"
    },
    {
      "inputs": [],
      "name": "renounceOwnership",
      "outputs": [],
      "stateMutability": "nonpayable",
      "type": "function"
    },
    {
      "inputs": [
        {
          "internalType": "address",
          "name": "_tradingFunctions",
          "type": "address"
        }
      ],
      "name": "setTradingFunctions",
      "outputs": [],
      "stateMutability": "nonpayable",
      "type": "function"
    },
    {
      "inputs": [
        {
          "internalType": "address",
          "name": "",
          "type": "address"
        }
      ],
      "name": "supportedTokens",
      "outputs": [
        {
          "internalType": "bool",
          "name": "",
          "type": "bool"
        }
      ],
      "stateMutability": "view",
      "type": "function"
    },
    {
      "inputs": [
        {
          "internalType": "address",
          "name": "",
          "type": "address"
        }
      ],
      "name": "tokenPrices",
      "outputs": [
        {
          "internalType": "uint256",
          "name": "",
          "type": "uint256"
        }
      ],
      "stateMutability": "view",
      "type": "function"
    },
    {
      "inputs": [],
      "name": "tradingFunctions",
      "outputs": [
        {
          "internalType": "address",
          "name": "",
          "type": "address"
        }
      ],
      "stateMutability": "view",
      "type": "function"
    },
    {
      "inputs": [
        {
          "internalType": "address",
          "name": "newOwner",
          "type": "address"
        }
      ],
      "name": "transferOwnership",
      "outputs": [],
      "stateMutability": "nonpayable",
      "type": "function"
    },
    {
      "inputs": [
        {
          "internalType": "address",
          "name": "_player",
          "type": "address"
        },
        {
          "internalType": "string",
          "name": "_achievement",
          "type": "string"
        },
        {
          "internalType": "uint256",
          "name": "_tokenAmount",
          "type": "uint256"
        }
      ],
      "name": "unlockAchievement",
      "outputs": [],
      "stateMutability": "nonpayable",
      "type": "function"
    },
    {
      "inputs": [
        {
          "internalType": "address",
          "name": "_user",
          "type": "address"
        },
        {
          "internalType": "address",
          "name": "_token",
          "type": "address"
        },
        {
          "internalType": "uint256",
          "name": "_amount",
          "type": "uint256"
        },
        {
          "internalType": "bool",
          "name": "_increase",
          "type": "bool"
        }
      ],
      "name": "updateUserBalance",
      "outputs": [],
      "stateMutability": "nonpayable",
      "type": "function"
    },
    {
      "inputs": [
        {
          "internalType": "address",
          "name": "_user",
          "type": "address"
        },
        {
          "internalType": "address",
          "name": "_token",
          "type": "address"
        },
        {
          "internalType": "uint256",
          "name": "_amount",
          "type": "uint256"
        },
        {
          "internalType": "bool",
          "name": "_increase",
          "type": "bool"
        }
      ],
      "name": "updateUserCollateral",
      "outputs": [],
      "stateMutability": "nonpayable",
      "type": "function"
    },
    {
      "inputs": [
        {
          "internalType": "address",
          "name": "_user",
          "type": "address"
        },
        {
          "internalType": "address",
          "name": "_token",
          "type": "address"
        },
        {
          "internalType": "uint256",
          "name": "_amount",
          "type": "uint256"
        },
        {
          "internalType": "bool",
          "name": "_increase",
          "type": "bool"
        }
      ],
      "name": "updateUserDebt",
      "outputs": [],
      "stateMutability": "nonpayable",
      "type": "function"
    },
    {
      "inputs": [
        {
          "internalType": "address",
          "name": "_user",
          "type": "address"
        },
        {
          "internalType": "address",
          "name": "_token",
          "type": "address"
        },
        {
          "internalType": "uint256",
          "name": "_amount",
          "type": "uint256"
        },
        {
          "internalType": "bool",
          "name": "_increase",
          "type": "bool"
        }
      ],
      "name": "updateUserStaked",
      "outputs": [],
      "stateMutability": "nonpayable",
      "type": "function"
    },
    {
      "inputs": [
        {
          "internalType": "address",
          "name": "",
          "type": "address"
        },
        {
          "internalType": "address",
          "name": "",
          "type": "address"
        }
      ],
      "name": "userAssetBalances",
      "outputs": [
        {
          "internalType": "uint256",
          "name": "",
          "type": "uint256"
        }
      ],
      "stateMutability": "view",
      "type": "function"
    },
    {
      "inputs": [
        {
          "internalType": "address",
          "name": "",
          "type": "address"
        },
        {
          "internalType": "address",
          "name": "",
          "type": "address"
        }
      ],
      "name": "userCollateral",
      "outputs": [
        {
          "internalType": "uint256",
          "name": "",
          "type": "uint256"
        }
      ],
      "stateMutability": "view",
      "type": "function"
    },
    {
      "inputs": [
        {
          "internalType": "address",
          "name": "",
          "type": "address"
        },
        {
          "internalType": "address",
          "name": "",
          "type": "address"
        }
      ],
      "name": "userDebt",
      "outputs": [
        {
          "internalType": "uint256",
          "name": "",
          "type": "uint256"
        }
      ],
      "stateMutability": "view",
      "type": "function"
    },
    {
      "inputs": [
        {
          "internalType": "address",
          "name": "",
          "type": "address"
        },
        {
          "internalType": "address",
          "name": "",
          "type": "address"
        }
      ],
      "name": "userStaked",
      "outputs": [
        {
          "internalType": "uint256",
          "name": "",
          "type": "uint256"
        }
      ],
      "stateMutability": "view",
      "type": "function"
    }
  ],
  "bytecode": "0x608060405234801561001057600080fd5b5060405161162938038061162983398101604081905261002f916101e3565b338061005557604051631e4fbdf760e01b81526000600482015260240160405180910390fd5b61005e81610193565b50600180546001600160a01b039092166001600160a01b0319928316178155600280549092169091557fad67d757c34507f157cacfa2e3153e9f260a2244f30428821be7be64587ac55f805460ff1990811683179091557f6add646517a5b0f6793cd5891b7937d28a5b2981a5d88ebc7cd776088fea904180548216831790557f625b35f5e76f098dd7c3a05b10e2e5e78a4a01228d60c3b143426cdf36d26455805490911690911790556009602052683635c9adc5dea000007f92e85d02570a8092d09a6e3a57665bc3815a2699a4074001bf1ccabf660f5a3655670de0b6b3a76400007f6cde3cea4b3a3fb2488b2808bae7556f4a405e50f65e1794383bc026131b13c381905560036000527fc575c31fea594a6eb97c8e9d3f9caee4c16218c6ef37e923234c0fe9014a61e755610213565b600080546001600160a01b038381166001600160a01b0319831681178455604051919092169283917f8be0079c531659141344cd1fd0a4f28419497f9722a3daafe3b4186f6b6457e09190a35050565b6000602082840312156101f557600080fd5b81516001600160a01b038116811461020c57600080fd5b9392505050565b611407806102226000396000f3fe608060405234801561001057600080fd5b50600436106102065760003560e01c80638da5cb5b1161011a578063a8ce21b0116100ad578063d02641a01161007c578063d02641a014610572578063d87b21d11461059b578063e2eb41ff146105ae578063f2fde38b146105e1578063f6602c37146105f457600080fd5b8063a8ce21b0146104e8578063b0f80c73146104fb578063b4334e3f14610526578063cabf249d1461053957600080fd5b80639fe90173116100e95780639fe9017314610450578063a2a00ed614610463578063a3e00e311461049c578063a55e8668146104af57600080fd5b80638da5cb5b146104275780638ffaacaa1461043857806390a8ae9b146104405780639b8621d51461044857600080fd5b8063593284011161019d5780636d34cd171161016c5780636d34cd17146103a2578063715018a6146103b557806375151b63146103bd5780637690cd87146103e95780637771dad5146103fc57600080fd5b806359328401146102f75780635c975abb1461034e5780636805d6ad1461036c57806368c4ac261461037f57600080fd5b80633402ff1d116101d95780633402ff1d1461029e578063347a0ef0146102a6578063546bf06e146102d157806354ac63c6146102e457600080fd5b806314c8ad2c1461020b5780631aa3a00814610249578063204120bc146102535780632b92a07d14610273575b600080fd5b6102366102193660046110e5565b600660209081526000928352604080842090915290825290205481565b6040519081526020015b60405180910390f35b610251610607565b005b610236610261366004611118565b60096020526000908152604090205481565b6102366102813660046110e5565b600560209081526000928352604080842090915290825290205481565b610236609681565b6001546102b9906001600160a01b031681565b6040516001600160a01b039091168152602001610240565b6102516102df366004611133565b6106ed565b6102516102f2366004611133565b610868565b610331610305366004611118565b6001600160a01b031660009081526003602052604090208054600182015460029092015460ff90911692565b604080519315158452602084019290925290820152606001610240565b600054600160a01b900460ff165b6040519015158152602001610240565b61023661037a3660046110e5565b6109be565b61035c61038d366004611118565b60086020526000908152604090205460ff1681565b6102366103b0366004611187565b6109eb565b610251610a29565b61035c6103cb366004611118565b6001600160a01b031660009081526008602052604090205460ff1690565b6002546102b9906001600160a01b031681565b61023661040a3660046110e5565b600760209081526000928352604080842090915290825290205481565b6000546001600160a01b03166102b9565b610236600181565b610236607d81565b610236600a81565b61025161045e3660046111fa565b610a3d565b6102366104713660046110e5565b6001600160a01b03918216600090815260066020908152604080832093909416825291909152205490565b6102516104aa366004611133565b610b56565b6102366104bd3660046110e5565b6001600160a01b03918216600090815260056020908152604080832093909416825291909152205490565b6102366104f6366004611254565b610cfa565b6102366105093660046110e5565b600460209081526000928352604080842090915290825290205481565b610251610534366004611133565b610d3f565b6102366105473660046110e5565b6001600160a01b03918216600090815260076020908152604080832093909416825291909152205490565b610236610580366004611118565b6001600160a01b031660009081526009602052604090205490565b6102516105a93660046112a7565b610e91565b6103316105bc366004611118565b60036020526000908152604090208054600182015460029092015460ff909116919083565b6102516105ef366004611118565b610fe4565b610251610602366004611118565b611022565b3360009081526003602052604090205460ff16156106615760405162461bcd60e51b8152602060048201526012602482015271105b1c9958591e481c9959da5cdd195c995960721b60448201526064015b60405180910390fd5b336000818152600360208181526040808420805460ff19166001908117825580820186905560029182018690556004845282862081875290935281852068056bc75e2d63100000905580855281852085905583855281852085905590519194909390917f8cd3331e32cec677d80b82cf0f71496605e7ed6ff864a3ccedc7d5d11d838c839190a2505050565b6000546001600160a01b031633148061071057506002546001600160a01b031633145b6107685760405162461bcd60e51b815260206004820152603560248201526000805160206113b283398151915260448201527418d85b881d5c19185d194818dbdb1b185d195c985b605a1b6064820152608401610658565b80156107b0576001600160a01b038085166000908152600560209081526040808320938716835292905290812080548492906107a5908490611309565b909155506108629050565b6001600160a01b038085166000908152600560209081526040808320938716835292905220548211156108255760405162461bcd60e51b815260206004820152601760248201527f496e73756666696369656e7420636f6c6c61746572616c0000000000000000006044820152606401610658565b6001600160a01b0380851660009081526005602090815260408083209387168352929052908120805484929061085c90849061131c565b90915550505b50505050565b6000546001600160a01b031633148061088b57506002546001600160a01b031633145b6108df5760405162461bcd60e51b815260206004820152603160248201526000805160206113b283398151915260448201527018d85b881d5c19185d19481cdd185ad959607a1b6064820152608401610658565b801561091c576001600160a01b038085166000908152600760209081526040808320938716835292905290812080548492906107a5908490611309565b6001600160a01b038085166000908152600760209081526040808320938716835292905220548211156109875760405162461bcd60e51b8152602060048201526013602482015272125b9cdd59999a58da595b9d081cdd185ad959606a1b6044820152606401610658565b6001600160a01b0380851660009081526007602090815260408083209387168352929052908120805484929061085c90849061131c565b6001600160a01b038083166000908152600460209081526040808320938516835292905220545b92915050565b6001600160a01b038216600090815260096020526040812054670de0b6b3a764000090610a18908461132f565b610a229190611346565b9392505050565b610a3161104c565b610a3b6000611079565b565b610a4561104c565b6001600160a01b03841660009081526003602052604090205460ff16610aa55760405162461bcd60e51b8152602060048201526015602482015274141b185e595c881b9bdd081c9959da5cdd195c9959605a1b6044820152606401610658565b6001546040516340c10f1960e01b81526001600160a01b03868116600483015260248201849052909116906340c10f1990604401600060405180830381600087803b158015610af357600080fd5b505af1158015610b07573d6000803e3d6000fd5b50505050836001600160a01b03167f67a8d47c6ecf3a491ea8a4f20a58352394879c573c678ec5b9abceae075d4dca848484604051610b4893929190611368565b60405180910390a250505050565b6000546001600160a01b0316331480610b7957506002546001600160a01b031633145b610bcf5760405162461bcd60e51b815260206004820152603360248201526000805160206113b283398151915260448201527263616e207570646174652062616c616e63657360681b6064820152608401610658565b8015610c31576001600160a01b03808516600090815260046020908152604080832093871683529290522054610c06908390611309565b6001600160a01b03808616600090815260046020908152604080832093881683529290522055610862565b6001600160a01b03808516600090815260046020908152604080832093871683529290522054821115610c9d5760405162461bcd60e51b8152602060048201526014602482015273496e73756666696369656e742062616c616e636560601b6044820152606401610658565b6001600160a01b03808516600090815260046020908152604080832093871683529290522054610cce90839061131c565b6001600160a01b0380861660009081526004602090815260408083209388168352929052205550505050565b6001600160a01b03831660009081526003602081905260408083209051910190610d2790859085906113a1565b90815260200160405180910390205490509392505050565b6000546001600160a01b0316331480610d6257506002546001600160a01b031633145b610db45760405162461bcd60e51b815260206004820152602f60248201526000805160206113b283398151915260448201526e18d85b881d5c19185d19481919589d608a1b6064820152608401610658565b8015610df1576001600160a01b038085166000908152600660209081526040808320938716835292905290812080548492906107a5908490611309565b6001600160a01b03808516600090815260066020908152604080832093871683529290522054821115610e5a5760405162461bcd60e51b8152602060048201526011602482015270125b9cdd59999a58da595b9d081919589d607a1b6044820152606401610658565b6001600160a01b0380851660009081526006602090815260408083209387168352929052908120805484929061085c90849061131c565b3360009081526003602052604090205460ff16610ee85760405162461bcd60e51b8152602060048201526015602482015274141b185e595c881b9bdd081c9959da5cdd195c9959605a1b6044820152606401610658565b600160036000336001600160a01b03166001600160a01b031681526020019081526020016000206003018484604051610f229291906113a1565b90815260200160405180910390206000828254610f3f9190611309565b90915550503360009081526003602052604081206001908101805491929091610f69908490611309565b909155505033600090815260036020526040902060020154610f8c908290611309565b33600081815260036020526040908190206002019290925590517ff24d2f7369d413865df1cee15d304bbd99c3077efb9ae36b0a094209fdf3822c90610fd790869086908690611368565b60405180910390a2505050565b610fec61104c565b6001600160a01b03811661101657604051631e4fbdf760e01b815260006004820152602401610658565b61101f81611079565b50565b61102a61104c565b600280546001600160a01b0319166001600160a01b0392909216919091179055565b6000546001600160a01b03163314610a3b5760405163118cdaa760e01b8152336004820152602401610658565b600080546001600160a01b038381166001600160a01b0319831681178455604051919092169283917f8be0079c531659141344cd1fd0a4f28419497f9722a3daafe3b4186f6b6457e09190a35050565b80356001600160a01b03811681146110e057600080fd5b919050565b600080604083850312156110f857600080fd5b611101836110c9565b915061110f602084016110c9565b90509250929050565b60006020828403121561112a57600080fd5b610a22826110c9565b6000806000806080858703121561114957600080fd5b611152856110c9565b9350611160602086016110c9565b9250604085013591506060850135801515811461117c57600080fd5b939692955090935050565b6000806040838503121561119a57600080fd5b6111a3836110c9565b946020939093013593505050565b60008083601f8401126111c357600080fd5b50813567ffffffffffffffff8111156111db57600080fd5b6020830191508360208285010111156111f357600080fd5b9250929050565b6000806000806060858703121561121057600080fd5b611219856110c9565b9350602085013567ffffffffffffffff81111561123557600080fd5b611241878288016111b1565b9598909750949560400135949350505050565b60008060006040848603121561126957600080fd5b611272846110c9565b9250602084013567ffffffffffffffff81111561128e57600080fd5b61129a868287016111b1565b9497909650939450505050565b6000806000604084860312156112bc57600080fd5b833567ffffffffffffffff8111156112d357600080fd5b6112df868287016111b1565b909790965060209590950135949350505050565b634e487b7160e01b600052601160045260246000fd5b808201808211156109e5576109e56112f3565b818103818111156109e5576109e56112f3565b80820281158282048414176109e5576109e56112f3565b60008261136357634e487b7160e01b600052601260045260246000fd5b500490565b604081528260408201528284606083013760006060848301015260006060601f19601f8601168301019050826020830152949350505050565b818382376000910190815291905056fe4f6e6c79206f776e6572206f722074726164696e672066756e6374696f6e7320a2646970667358221220a15dec1705baac727adba80a65bda3b46573d1ae855c724322ee25837f0b2af164736f6c63430008180033",
  "linkReferences": {},
  "deployedLinkReferences": {}
}