{
  "_format": "hh-sol-artifact-1",
  "contractName": "TradingFunctions",
  "sourceName": "contracts/TradingFunctions.sol",
  "abi": [
    {
      "inputs": [
        {
          "internalType": "address",
          "name": "_coreContract",
          "type": "address"
        }
      ],
      "stateMutability": "nonpayable",
      "type": "constructor"
    },
    {
      "anonymous": false,
      "inputs": [
        {
          "indexed": true,
          "internalType": "address",
          "name": "user",
          "type": "address"
        },
        {
          "indexed": false,
          "internalType": "address",
          "name": "token",
          "type": "address"
        },
        {
          "indexed": false,
          "internalType": "uint256",
          "name": "amount",
          "type": "uint256"
        },
        {
          "indexed": false,
          "internalType": "uint256",
          "name": "collateralValue",
          "type": "uint256"
        }
      ],
      "name": "Borrow",
      "type": "event"
    },
    {
      "anonymous": false,
      "inputs": [
        {
          "indexed": true,
          "internalType": "address",
          "name": "user",
          "type": "address"
        },
        {
          "indexed": false,
          "internalType": "address",
          "name": "token",
          "type": "address"
        },
        {
          "indexed": false,
          "internalType": "uint256",
          "name": "amount",
          "type": "uint256"
        },
        {
          "indexed": false,
          "internalType": "uint256",
          "name": "cost",
          "type": "uint256"
        }
      ],
      "name": "Buy",
      "type": "event"
    },
    {
      "anonymous": false,
      "inputs": [
        {
          "indexed": true,
          "internalType": "address",
          "name": "user",
          "type": "address"
        },
        {
          "indexed": false,
          "internalType": "address",
          "name": "token",
          "type": "address"
        },
        {
          "indexed": false,
          "internalType": "uint256",
          "name": "amount",
          "type": "uint256"
        },
        {
          "indexed": false,
          "internalType": "uint256",
          "name": "fee",
          "type": "uint256"
        }
      ],
      "name": "FlashLoan",
      "type": "event"
    },
    {
      "anonymous": false,
      "inputs": [
        {
          "indexed": true,
          "internalType": "address",
          "name": "user",
          "type": "address"
        },
        {
          "indexed": false,
          "internalType": "address",
          "name": "token",
          "type": "address"
        },
        {
          "indexed": false,
          "internalType": "uint256",
          "name": "amount",
          "type": "uint256"
        }
      ],
      "name": "Lend",
      "type": "event"
    },
    {
      "anonymous": false,
      "inputs": [
        {
          "indexed": true,
          "internalType": "address",
          "name": "user",
          "type": "address"
        },
        {
          "indexed": false,
          "internalType": "address",
          "name": "token",
          "type": "address"
        },
        {
          "indexed": false,
          "internalType": "uint256",
          "name": "amount",
          "type": "uint256"
        }
      ],
      "name": "Repay",
      "type": "event"
    },
    {
      "anonymous": false,
      "inputs": [
        {
          "indexed": true,
          "internalType": "address",
          "name": "user",
          "type": "address"
        },
        {
          "indexed": false,
          "internalType": "address",
          "name": "token",
          "type": "address"
        },
        {
          "indexed": false,
          "internalType": "uint256",
          "name": "amount",
          "type": "uint256"
        },
        {
          "indexed": false,
          "internalType": "uint256",
          "name": "proceeds",
          "type": "uint256"
        }
      ],
      "name": "Sell",
      "type": "event"
    },
    {
      "anonymous": false,
      "inputs": [
        {
          "indexed": true,
          "internalType": "address",
          "name": "user",
          "type": "address"
        },
        {
          "indexed": false,
          "internalType": "address",
          "name": "token",
          "type": "address"
        },
        {
          "indexed": false,
          "internalType": "uint256",
          "name": "amount",
          "type": "uint256"
        }
      ],
      "name": "Stake",
      "type": "event"
    },
    {
      "anonymous": false,
      "inputs": [
        {
          "indexed": true,
          "internalType": "address",
          "name": "user",
          "type": "address"
        },
        {
          "indexed": false,
          "internalType": "address",
          "name": "fromToken",
          "type": "address"
        },
        {
          "indexed": false,
          "internalType": "address",
          "name": "toToken",
          "type": "address"
        },
        {
          "indexed": false,
          "internalType": "uint256",
          "name": "fromAmount",
          "type": "uint256"
        },
        {
          "indexed": false,
          "internalType": "uint256",
          "name": "toAmount",
          "type": "uint256"
        }
      ],
      "name": "Swap",
      "type": "event"
    },
    {
      "anonymous": false,
      "inputs": [
        {
          "indexed": true,
          "internalType": "address",
          "name": "user",
          "type": "address"
        },
        {
          "indexed": false,
          "internalType": "address",
          "name": "token",
          "type": "address"
        },
        {
          "indexed": false,
          "internalType": "uint256",
          "name": "amount",
          "type": "uint256"
        }
      ],
      "name": "Unstake",
      "type": "event"
    },
    {
      "inputs": [
        {
          "internalType": "address",
          "name": "_token",
          "type": "address"
        },
        {
          "internalType": "uint256",
          "name": "_amount",
          "type": "uint256"
        },
        {
          "internalType": "address",
          "name": "_collateralToken",
          "type": "address"
        },
        {
          "internalType": "uint256",
          "name": "_collateralAmount",
          "type": "uint256"
        }
      ],
      "name": "borrow",
      "outputs": [],
      "stateMutability": "nonpayable",
      "type": "function"
    },
    {
      "inputs": [
        {
          "internalType": "address",
          "name": "_token",
          "type": "address"
        },
        {
          "internalType": "uint256",
          "name": "_amount",
          "type": "uint256"
        }
      ],
      "name": "buy",
      "outputs": [],
      "stateMutability": "nonpayable",
      "type": "function"
    },
    {
      "inputs": [],
      "name": "coreContract",
      "outputs": [
        {
          "internalType": "contract EtherRiftCore",
          "name": "",
          "type": "address"
        }
      ],
      "stateMutability": "view",
      "type": "function"
    },
    {
      "inputs": [
        {
          "internalType": "address",
          "name": "_token",
          "type": "address"
        },
        {
          "internalType": "uint256",
          "name": "_amount",
          "type": "uint256"
        }
      ],
      "name": "flashLoan",
      "outputs": [],
      "stateMutability": "nonpayable",
      "type": "function"
    },
    {
      "inputs": [
        {
          "internalType": "address",
          "name": "_token",
          "type": "address"
        },
        {
          "internalType": "uint256",
          "name": "_amount",
          "type": "uint256"
        }
      ],
      "name": "lend",
      "outputs": [],
      "stateMutability": "nonpayable",
      "type": "function"
    },
    {
      "inputs": [
        {
          "internalType": "address",
          "name": "_token",
          "type": "address"
        },
        {
          "internalType": "uint256",
          "name": "_amount",
          "type": "uint256"
        }
      ],
      "name": "repay",
      "outputs": [],
      "stateMutability": "nonpayable",
      "type": "function"
    },
    {
      "inputs": [
        {
          "internalType": "address",
          "name": "_token",
          "type": "address"
        },
        {
          "internalType": "uint256",
          "name": "_amount",
          "type": "uint256"
        }
      ],
      "name": "sell",
      "outputs": [],
      "stateMutability": "nonpayable",
      "type": "function"
    },
    {
      "inputs": [
        {
          "internalType": "address",
          "name": "_token",
          "type": "address"
        },
        {
          "internalType": "uint256",
          "name": "_amount",
          "type": "uint256"
        }
      ],
      "name": "stake",
      "outputs": [],
      "stateMutability": "nonpayable",
      "type": "function"
    },
    {
      "inputs": [
        {
          "internalType": "address",
          "name": "_fromToken",
          "type": "address"
        },
        {
          "internalType": "address",
          "name": "_toToken",
          "type": "address"
        },
        {
          "internalType": "uint256",
          "name": "_amount",
          "type": "uint256"
        }
      ],
      "name": "swap",
      "outputs": [],
      "stateMutability": "nonpayable",
      "type": "function"
    },
    {
      "inputs": [
        {
          "internalType": "address",
          "name": "_token",
          "type": "address"
        },
        {
          "internalType": "uint256",
          "name": "_amount",
          "type": "uint256"
        }
      ],
      "name": "unstake",
      "outputs": [],
      "stateMutability": "nonpayable",
      "type": "function"
    }
  ],
  "bytecode": "0x608060405234801561001057600080fd5b506040516200248b3803806200248b83398101604081905261003191610056565b600080546001600160a01b0319166001600160a01b0392909216919091179055610086565b60006020828403121561006857600080fd5b81516001600160a01b038116811461007f57600080fd5b9392505050565b6123f580620000966000396000f3fe608060405234801561001057600080fd5b506004361061009e5760003560e01c8063c2a672e011610066578063c2a672e014610104578063cce7ec1314610117578063d02805391461012a578063df791e501461013d578063e80db5db1461015057600080fd5b806322867d78146100a35780636c197ff5146100b85780639d9e465c146100cb578063a2fb342d146100de578063adc9772e146100f1575b600080fd5b6100b66100b1366004612154565b61017f565b005b6100b66100c6366004612154565b6104d9565b6100b66100d9366004612154565b61073e565b6100b66100ec366004612154565b6109f3565b6100b66100ff366004612154565b610bdf565b6100b6610112366004612154565b610e2b565b6100b6610125366004612154565b6110a7565b6100b6610138366004612180565b611326565b6100b661014b3660046121c8565b611bad565b600054610163906001600160a01b031681565b6040516001600160a01b03909116815260200160405180910390f35b6000546040516375151b6360e01b81526001600160a01b038085166004830152849216906375151b6390602401602060405180830381865afa1580156101c9573d6000803e3d6000fd5b505050506040513d601f19601f820116820180604052508101906101ed9190612209565b6102125760405162461bcd60e51b815260040161020990612232565b60405180910390fd5b600082116102325760405162461bcd60e51b81526004016102099061225f565b600054604051636805d6ad60e01b815283916001600160a01b031690636805d6ad906102649033908890600401612296565b602060405180830381865afa158015610281573d6000803e3d6000fd5b505050506040513d601f19601f820116820180604052508101906102a591906122b0565b10156102f35760405162461bcd60e51b815260206004820152601c60248201527f496e73756666696369656e7420746f6b656e7320746f207265706179000000006044820152606401610209565b60008054604051635150076b60e11b81526001600160a01b039091169063a2a00ed6906103269033908890600401612296565b602060405180830381865afa158015610343573d6000803e3d6000fd5b505050506040513d601f19601f8201168201806040525081019061036791906122b0565b9050600081116103ac5760405162461bcd60e51b815260206004820152601060248201526f4e6f206465627420746f20726570617960801b6044820152606401610209565b60008184116103bb57836103bd565b815b6000805460405163a3e00e3160e01b81529293506001600160a01b03169163a3e00e31916103f49133918a918791906004016122c9565b600060405180830381600087803b15801561040e57600080fd5b505af1158015610422573d6000803e3d6000fd5b50506000805460405163b4334e3f60e01b81526001600160a01b03909116935063b4334e3f925061045b9133918a9187916004016122c9565b600060405180830381600087803b15801561047557600080fd5b505af1158015610489573d6000803e3d6000fd5b5050604080516001600160a01b0389168152602081018590523393507f05f2eeda0e08e4b437f487c8d7d29b14537d15e3488170dc3de5dbdf8dac46849250015b60405180910390a25050505050565b6000546040516375151b6360e01b81526001600160a01b038085166004830152849216906375151b6390602401602060405180830381865afa158015610523573d6000803e3d6000fd5b505050506040513d601f19601f820116820180604052508101906105479190612209565b6105635760405162461bcd60e51b815260040161020990612232565b600082116105835760405162461bcd60e51b81526004016102099061225f565b600054604051636805d6ad60e01b815283916001600160a01b031690636805d6ad906105b59033908890600401612296565b602060405180830381865afa1580156105d2573d6000803e3d6000fd5b505050506040513d601f19601f820116820180604052508101906105f691906122b0565b10156106145760405162461bcd60e51b8152600401610209906122f2565b6000610620848461201a565b6000805460405163a3e00e3160e01b81529293506001600160a01b03169163a3e00e319161065791339189918991906004016122c9565b600060405180830381600087803b15801561067157600080fd5b505af1158015610685573d6000803e3d6000fd5b505060005460405163a3e00e3160e01b81526001600160a01b03909116925063a3e00e3191506106c190339060029086906001906004016122c9565b600060405180830381600087803b1580156106db57600080fd5b505af11580156106ef573d6000803e3d6000fd5b50505050336001600160a01b03167fa082022e93cfcd9f1da5f9236718053910f7e840da080c789c7845698dc032ff8585846040516107309392919061231f565b60405180910390a250505050565b6000546040516375151b6360e01b81526001600160a01b038085166004830152849216906375151b6390602401602060405180830381865afa158015610788573d6000803e3d6000fd5b505050506040513d601f19601f820116820180604052508101906107ac9190612209565b6107c85760405162461bcd60e51b815260040161020990612232565b600082116107e85760405162461bcd60e51b81526004016102099061225f565b60006103e86107f8846001612356565b610802919061236d565b90506000610810828561238f565b600054604051636805d6ad60e01b815291925082916001600160a01b0390911690636805d6ad906108479033908a90600401612296565b602060405180830381865afa158015610864573d6000803e3d6000fd5b505050506040513d601f19601f8201168201806040525081019061088891906122b0565b10156108e65760405162461bcd60e51b815260206004820152602760248201527f496e73756666696369656e7420746f6b656e7320746f20726570617920666c6160448201526639b4103637b0b760c91b6064820152608401610209565b60005460405163a3e00e3160e01b81526001600160a01b039091169063a3e00e319061091d903390899089906001906004016122c9565b600060405180830381600087803b15801561093757600080fd5b505af115801561094b573d6000803e3d6000fd5b50506000805460405163a3e00e3160e01b81526001600160a01b03909116935063a3e00e3192506109849133918a9187916004016122c9565b600060405180830381600087803b15801561099e57600080fd5b505af11580156109b2573d6000803e3d6000fd5b50505050336001600160a01b03167f0d7d75e01ab95780d3cd1c8ec0dd6c2ce19e3a20427eec8bf53283b6fb8e95f08686856040516104ca9392919061231f565b6000546040516375151b6360e01b81526001600160a01b038085166004830152849216906375151b6390602401602060405180830381865afa158015610a3d573d6000803e3d6000fd5b505050506040513d601f19601f82011682018060405250810190610a619190612209565b610a7d5760405162461bcd60e51b815260040161020990612232565b60008211610a9d5760405162461bcd60e51b81526004016102099061225f565b600054604051636805d6ad60e01b815283916001600160a01b031690636805d6ad90610acf9033908890600401612296565b602060405180830381865afa158015610aec573d6000803e3d6000fd5b505050506040513d601f19601f82011682018060405250810190610b1091906122b0565b1015610b2e5760405162461bcd60e51b8152600401610209906122f2565b6000805460405163a3e00e3160e01b81526001600160a01b039091169163a3e00e3191610b63913391889188916004016122c9565b600060405180830381600087803b158015610b7d57600080fd5b505af1158015610b91573d6000803e3d6000fd5b5050604080516001600160a01b0387168152602081018690523393507f11dd72a5d477527ee1cbe309212bb368745a98cf1dc3befcac7eef4988a957c29250015b60405180910390a2505050565b6000546040516375151b6360e01b81526001600160a01b038085166004830152849216906375151b6390602401602060405180830381865afa158015610c29573d6000803e3d6000fd5b505050506040513d601f19601f82011682018060405250810190610c4d9190612209565b610c695760405162461bcd60e51b815260040161020990612232565b60008211610c895760405162461bcd60e51b81526004016102099061225f565b600054604051636805d6ad60e01b815283916001600160a01b031690636805d6ad90610cbb9033908890600401612296565b602060405180830381865afa158015610cd8573d6000803e3d6000fd5b505050506040513d601f19601f82011682018060405250810190610cfc91906122b0565b1015610d1a5760405162461bcd60e51b8152600401610209906122f2565b6000805460405163a3e00e3160e01b81526001600160a01b039091169163a3e00e3191610d4f913391889188916004016122c9565b600060405180830381600087803b158015610d6957600080fd5b505af1158015610d7d573d6000803e3d6000fd5b5050600054604051632a5631e360e11b81526001600160a01b0390911692506354ac63c69150610db8903390879087906001906004016122c9565b600060405180830381600087803b158015610dd257600080fd5b505af1158015610de6573d6000803e3d6000fd5b5050604080516001600160a01b0387168152602081018690523393507f99039fcf0a98f484616c5196ee8b2ecfa971babf0b519848289ea4db381f85f7925001610bd2565b6000546040516375151b6360e01b81526001600160a01b038085166004830152849216906375151b6390602401602060405180830381865afa158015610e75573d6000803e3d6000fd5b505050506040513d601f19601f82011682018060405250810190610e999190612209565b610eb55760405162461bcd60e51b815260040161020990612232565b60008211610ed55760405162461bcd60e51b81526004016102099061225f565b60005460405163cabf249d60e01b815283916001600160a01b03169063cabf249d90610f079033908890600401612296565b602060405180830381865afa158015610f24573d6000803e3d6000fd5b505050506040513d601f19601f82011682018060405250810190610f4891906122b0565b1015610f965760405162461bcd60e51b815260206004820152601a60248201527f496e73756666696369656e74207374616b656420746f6b656e730000000000006044820152606401610209565b60008054604051632a5631e360e11b81526001600160a01b03909116916354ac63c691610fcb913391889188916004016122c9565b600060405180830381600087803b158015610fe557600080fd5b505af1158015610ff9573d6000803e3d6000fd5b505060005460405163a3e00e3160e01b81526001600160a01b03909116925063a3e00e319150611034903390879087906001906004016122c9565b600060405180830381600087803b15801561104e57600080fd5b505af1158015611062573d6000803e3d6000fd5b5050604080516001600160a01b0387168152602081018690523393507f390b1276974b9463e5d66ab10df69b6f3d7b930eb066a0e66df327edd2cc811c925001610bd2565b6000546040516375151b6360e01b81526001600160a01b038085166004830152849216906375151b6390602401602060405180830381865afa1580156110f1573d6000803e3d6000fd5b505050506040513d601f19601f820116820180604052508101906111159190612209565b6111315760405162461bcd60e51b815260040161020990612232565b600082116111515760405162461bcd60e51b81526004016102099061225f565b600061115d84846120b5565b600054604051636805d6ad60e01b815291925082916001600160a01b0390911690636805d6ad90611195903390600290600401612296565b602060405180830381865afa1580156111b2573d6000803e3d6000fd5b505050506040513d601f19601f820116820180604052508101906111d691906122b0565b10156112185760405162461bcd60e51b8152602060048201526011602482015270496e73756666696369656e74205553444360781b6044820152606401610209565b6000805460405163a3e00e3160e01b81526001600160a01b039091169163a3e00e319161124e91339160029187916004016122c9565b600060405180830381600087803b15801561126857600080fd5b505af115801561127c573d6000803e3d6000fd5b505060005460405163a3e00e3160e01b81526001600160a01b03909116925063a3e00e3191506112b7903390889088906001906004016122c9565b600060405180830381600087803b1580156112d157600080fd5b505af11580156112e5573d6000803e3d6000fd5b50505050336001600160a01b03167f89f5adc174562e07c9c9b1cae7109bbecb21cf9d1b2847e550042b8653c54a0e8585846040516107309392919061231f565b6000546040516375151b6360e01b81526001600160a01b038087166004830152869216906375151b6390602401602060405180830381865afa158015611370573d6000803e3d6000fd5b505050506040513d601f19601f820116820180604052508101906113949190612209565b6113b05760405162461bcd60e51b815260040161020990612232565b600084116113d05760405162461bcd60e51b81526004016102099061225f565b600082116114315760405162461bcd60e51b815260206004820152602860248201527f436f6c6c61746572616c20616d6f756e74206d75737420626520677265617465604482015267072207468616e20360c41b6064820152608401610209565b60008060009054906101000a90046001600160a01b03166001600160a01b031663347a0ef06040518163ffffffff1660e01b8152600401602060405180830381865afa158015611485573d6000803e3d6000fd5b505050506040513d601f19601f820116820180604052508101906114a991906123a2565b6001600160a01b0316846001600160a01b03161490508061154e576000546040516375151b6360e01b81526001600160a01b038681166004830152909116906375151b6390602401602060405180830381865afa15801561150e573d6000803e3d6000fd5b505050506040513d601f19601f820116820180604052508101906115329190612209565b61154e5760405162461bcd60e51b815260040161020990612232565b806115cd57600054604051636805d6ad60e01b815284916001600160a01b031690636805d6ad906115859033908990600401612296565b602060405180830381865afa1580156115a2573d6000803e3d6000fd5b505050506040513d601f19601f820116820180604052508101906115c691906122b0565b10156116a7565b60005460408051630347a0ef60e41b8152905185926001600160a01b03169163347a0ef09160048083019260209291908290030181865afa158015611616573d6000803e3d6000fd5b505050506040513d601f19601f8201168201806040525081019061163a91906123a2565b6040516370a0823160e01b81523360048201526001600160a01b0391909116906370a0823190602401602060405180830381865afa158015611680573d6000803e3d6000fd5b505050506040513d601f19601f820116820180604052508101906116a491906122b0565b10155b6116f35760405162461bcd60e51b815260206004820152601760248201527f496e73756666696369656e7420636f6c6c61746572616c0000000000000000006044820152606401610209565b6000811561170257508261177a565b600054604051636d34cd1760e01b81526001600160a01b0387811660048301526024820187905290911690636d34cd1790604401602060405180830381865afa158015611753573d6000803e3d6000fd5b505050506040513d601f19601f8201168201806040525081019061177791906122b0565b90505b60008054604051636d34cd1760e01b81526001600160a01b038a81166004830152602482018a905290911690636d34cd1790604401602060405180830381865afa1580156117cc573d6000803e3d6000fd5b505050506040513d601f19601f820116820180604052508101906117f091906122b0565b905060646117ff826096612356565b611809919061236d565b8210156118585760405162461bcd60e51b815260206004820152601e60248201527f496e73756666696369656e7420636f6c6c61746572616c697a6174696f6e00006044820152606401610209565b82156119bb5760008054906101000a90046001600160a01b03166001600160a01b031663347a0ef06040518163ffffffff1660e01b8152600401602060405180830381865afa1580156118af573d6000803e3d6000fd5b505050506040513d601f19601f820116820180604052508101906118d391906123a2565b6040516323b872dd60e01b8152336004820152306024820152604481018790526001600160a01b0391909116906323b872dd906064016020604051808303816000875af1158015611928573d6000803e3d6000fd5b505050506040513d601f19601f8201168201806040525081019061194c9190612209565b50600054604051632a35f83760e11b81526001600160a01b039091169063546bf06e906119849033908a908a906001906004016122c9565b600060405180830381600087803b15801561199e57600080fd5b505af11580156119b2573d6000803e3d6000fd5b50505050611a8c565b6000805460405163a3e00e3160e01b81526001600160a01b039091169163a3e00e31916119f09133918b918b916004016122c9565b600060405180830381600087803b158015611a0a57600080fd5b505af1158015611a1e573d6000803e3d6000fd5b5050600054604051632a35f83760e11b81526001600160a01b03909116925063546bf06e9150611a599033908a908a906001906004016122c9565b600060405180830381600087803b158015611a7357600080fd5b505af1158015611a87573d6000803e3d6000fd5b505050505b60005460405163a3e00e3160e01b81526001600160a01b039091169063a3e00e3190611ac39033908c908c906001906004016122c9565b600060405180830381600087803b158015611add57600080fd5b505af1158015611af1573d6000803e3d6000fd5b505060005460405163b4334e3f60e01b81526001600160a01b03909116925063b4334e3f9150611b2c9033908c908c906001906004016122c9565b600060405180830381600087803b158015611b4657600080fd5b505af1158015611b5a573d6000803e3d6000fd5b50505050336001600160a01b03167fc1561b330e73faa7d5d1ac03c968d8f359b0191ccdb9cc002cf7d8eb6ae038cb898985604051611b9b9392919061231f565b60405180910390a25050505050505050565b6000546040516375151b6360e01b81526001600160a01b038086166004830152859216906375151b6390602401602060405180830381865afa158015611bf7573d6000803e3d6000fd5b505050506040513d601f19601f82011682018060405250810190611c1b9190612209565b611c375760405162461bcd60e51b815260040161020990612232565b6000546040516375151b6360e01b81526001600160a01b038086166004830152859216906375151b6390602401602060405180830381865afa158015611c81573d6000803e3d6000fd5b505050506040513d601f19601f82011682018060405250810190611ca59190612209565b611cc15760405162461bcd60e51b815260040161020990612232565b60008311611ce15760405162461bcd60e51b81526004016102099061225f565b836001600160a01b0316856001600160a01b031603611d3b5760405162461bcd60e51b815260206004820152601660248201527521b0b73737ba1039bbb0b81039b0b6b2903a37b5b2b760511b6044820152606401610209565b600054604051636805d6ad60e01b815284916001600160a01b031690636805d6ad90611d6d9033908a90600401612296565b602060405180830381865afa158015611d8a573d6000803e3d6000fd5b505050506040513d601f19601f82011682018060405250810190611dae91906122b0565b1015611dcc5760405162461bcd60e51b8152600401610209906122f2565b60008054604051636d34cd1760e01b81526001600160a01b0388811660048301526024820187905290911690636d34cd1790604401602060405180830381865afa158015611e1e573d6000803e3d6000fd5b505050506040513d601f19601f82011682018060405250810190611e4291906122b0565b60008054604051630681320d60e51b81526001600160a01b0389811660048301529394509192169063d02641a090602401602060405180830381865afa158015611e90573d6000803e3d6000fd5b505050506040513d601f19601f82011682018060405250810190611eb491906122b0565b611ec683670de0b6b3a7640000612356565b611ed0919061236d565b90506103e8611ee1826103e5612356565b611eeb919061236d565b6000805460405163a3e00e3160e01b81529293506001600160a01b03169163a3e00e3191611f229133918c918b91906004016122c9565b600060405180830381600087803b158015611f3c57600080fd5b505af1158015611f50573d6000803e3d6000fd5b505060005460405163a3e00e3160e01b81526001600160a01b03909116925063a3e00e319150611f8b9033908a9086906001906004016122c9565b600060405180830381600087803b158015611fa557600080fd5b505af1158015611fb9573d6000803e3d6000fd5b5050604080516001600160a01b038b811682528a166020820152908101889052606081018490523392507fcd3829a3813dc3cdd188fd3d01dcf3268c16be2fdd2dd21d0665418816e46062915060800160405180910390a250505050505050565b60008054604051636d34cd1760e01b81526001600160a01b0385811660048301526024820185905283921690636d34cd1790604401602060405180830381865afa15801561206c573d6000803e3d6000fd5b505050506040513d601f19601f8201168201806040525081019061209091906122b0565b90506103e86120a1826103e5612356565b6120ab919061236d565b9150505b92915050565b60008054604051636d34cd1760e01b81526001600160a01b0385811660048301526024820185905283921690636d34cd1790604401602060405180830381865afa158015612107573d6000803e3d6000fd5b505050506040513d601f19601f8201168201806040525081019061212b91906122b0565b90506103e86120a1826103eb612356565b6001600160a01b038116811461215157600080fd5b50565b6000806040838503121561216757600080fd5b82356121728161213c565b946020939093013593505050565b6000806000806080858703121561219657600080fd5b84356121a18161213c565b93506020850135925060408501356121b88161213c565b9396929550929360600135925050565b6000806000606084860312156121dd57600080fd5b83356121e88161213c565b925060208401356121f88161213c565b929592945050506040919091013590565b60006020828403121561221b57600080fd5b8151801515811461222b57600080fd5b9392505050565b602080825260139082015272151bdad95b881b9bdd081cdd5c1c1bdc9d1959606a1b604082015260600190565b6020808252601d908201527f416d6f756e74206d7573742062652067726561746572207468616e2030000000604082015260600190565b6001600160a01b0392831681529116602082015260400190565b6000602082840312156122c257600080fd5b5051919050565b6001600160a01b0394851681529290931660208301526040820152901515606082015260800190565b602080825260139082015272496e73756666696369656e7420746f6b656e7360681b604082015260600190565b6001600160a01b039390931683526020830191909152604082015260600190565b634e487b7160e01b600052601160045260246000fd5b80820281158282048414176120af576120af612340565b60008261238a57634e487b7160e01b600052601260045260246000fd5b500490565b808201808211156120af576120af612340565b6000602082840312156123b457600080fd5b815161222b8161213c56fea2646970667358221220f3d2206764f0d9c8ee182a269cff04083293337091e9beed887cd8aa76207e6564736f6c63430008180033",
  "linkReferences": {},
  "deployedLinkReferences": {}
}