{
  "_format": "hh-sol-artifact-1",
  "contractName": "TradingFunctions",
  "sourceName": "contracts/TradingFunctions.sol",
  "abi": [
    {
      "inputs": [
        {
          "internalType": "address",
          "name": "_coreContract",
          "type": "address"
        }
      ],
      "stateMutability": "nonpayable",
      "type": "constructor"
    },
    {
      "anonymous": false,
      "inputs": [
        {
          "indexed": true,
          "internalType": "address",
          "name": "user",
          "type": "address"
        },
        {
          "indexed": false,
          "internalType": "address",
          "name": "token",
          "type": "address"
        },
        {
          "indexed": false,
          "internalType": "uint256",
          "name": "amount",
          "type": "uint256"
        },
        {
          "indexed": false,
          "internalType": "uint256",
          "name": "collateralValue",
          "type": "uint256"
        }
      ],
      "name": "Borrow",
      "type": "event"
    },
    {
      "anonymous": false,
      "inputs": [
        {
          "indexed": true,
          "internalType": "address",
          "name": "user",
          "type": "address"
        },
        {
          "indexed": false,
          "internalType": "address",
          "name": "token",
          "type": "address"
        },
        {
          "indexed": false,
          "internalType": "uint256",
          "name": "amount",
          "type": "uint256"
        },
        {
          "indexed": false,
          "internalType": "uint256",
          "name": "cost",
          "type": "uint256"
        }
      ],
      "name": "Buy",
      "type": "event"
    },
    {
      "anonymous": false,
      "inputs": [
        {
          "indexed": true,
          "internalType": "address",
          "name": "user",
          "type": "address"
        },
        {
          "indexed": false,
          "internalType": "address",
          "name": "token",
          "type": "address"
        },
        {
          "indexed": false,
          "internalType": "uint256",
          "name": "amount",
          "type": "uint256"
        },
        {
          "indexed": false,
          "internalType": "uint256",
          "name": "fee",
          "type": "uint256"
        }
      ],
      "name": "FlashLoan",
      "type": "event"
    },
    {
      "anonymous": false,
      "inputs": [
        {
          "indexed": true,
          "internalType": "address",
          "name": "user",
          "type": "address"
        },
        {
          "indexed": false,
          "internalType": "address",
          "name": "token",
          "type": "address"
        },
        {
          "indexed": false,
          "internalType": "uint256",
          "name": "amount",
          "type": "uint256"
        }
      ],
      "name": "Lend",
      "type": "event"
    },
    {
      "anonymous": false,
      "inputs": [
        {
          "indexed": true,
          "internalType": "address",
          "name": "user",
          "type": "address"
        },
        {
          "indexed": false,
          "internalType": "address",
          "name": "tokenA",
          "type": "address"
        },
        {
          "indexed": false,
          "internalType": "address",
          "name": "tokenB",
          "type": "address"
        },
        {
          "indexed": false,
          "internalType": "uint256",
          "name": "amountA",
          "type": "uint256"
        },
        {
          "indexed": false,
          "internalType": "uint256",
          "name": "amountB",
          "type": "uint256"
        }
      ],
      "name": "ProvideLiquidity",
      "type": "event"
    },
    {
      "anonymous": false,
      "inputs": [
        {
          "indexed": true,
          "internalType": "address",
          "name": "user",
          "type": "address"
        },
        {
          "indexed": false,
          "internalType": "address",
          "name": "tokenA",
          "type": "address"
        },
        {
          "indexed": false,
          "internalType": "address",
          "name": "tokenB",
          "type": "address"
        },
        {
          "indexed": false,
          "internalType": "uint256",
          "name": "amountA",
          "type": "uint256"
        },
        {
          "indexed": false,
          "internalType": "uint256",
          "name": "amountB",
          "type": "uint256"
        }
      ],
      "name": "RemoveLiquidity",
      "type": "event"
    },
    {
      "anonymous": false,
      "inputs": [
        {
          "indexed": true,
          "internalType": "address",
          "name": "user",
          "type": "address"
        },
        {
          "indexed": false,
          "internalType": "address",
          "name": "token",
          "type": "address"
        },
        {
          "indexed": false,
          "internalType": "uint256",
          "name": "amount",
          "type": "uint256"
        }
      ],
      "name": "Repay",
      "type": "event"
    },
    {
      "anonymous": false,
      "inputs": [
        {
          "indexed": true,
          "internalType": "address",
          "name": "user",
          "type": "address"
        },
        {
          "indexed": false,
          "internalType": "address",
          "name": "token",
          "type": "address"
        },
        {
          "indexed": false,
          "internalType": "uint256",
          "name": "amount",
          "type": "uint256"
        },
        {
          "indexed": false,
          "internalType": "uint256",
          "name": "proceeds",
          "type": "uint256"
        }
      ],
      "name": "Sell",
      "type": "event"
    },
    {
      "anonymous": false,
      "inputs": [
        {
          "indexed": true,
          "internalType": "address",
          "name": "user",
          "type": "address"
        },
        {
          "indexed": false,
          "internalType": "address",
          "name": "token",
          "type": "address"
        },
        {
          "indexed": false,
          "internalType": "uint256",
          "name": "amount",
          "type": "uint256"
        }
      ],
      "name": "Stake",
      "type": "event"
    },
    {
      "anonymous": false,
      "inputs": [
        {
          "indexed": true,
          "internalType": "address",
          "name": "user",
          "type": "address"
        },
        {
          "indexed": false,
          "internalType": "address",
          "name": "fromToken",
          "type": "address"
        },
        {
          "indexed": false,
          "internalType": "address",
          "name": "toToken",
          "type": "address"
        },
        {
          "indexed": false,
          "internalType": "uint256",
          "name": "fromAmount",
          "type": "uint256"
        },
        {
          "indexed": false,
          "internalType": "uint256",
          "name": "toAmount",
          "type": "uint256"
        }
      ],
      "name": "Swap",
      "type": "event"
    },
    {
      "anonymous": false,
      "inputs": [
        {
          "indexed": true,
          "internalType": "address",
          "name": "user",
          "type": "address"
        },
        {
          "indexed": false,
          "internalType": "address",
          "name": "token",
          "type": "address"
        },
        {
          "indexed": false,
          "internalType": "uint256",
          "name": "amount",
          "type": "uint256"
        }
      ],
      "name": "Unstake",
      "type": "event"
    },
    {
      "anonymous": false,
      "inputs": [
        {
          "indexed": true,
          "internalType": "address",
          "name": "user",
          "type": "address"
        },
        {
          "indexed": false,
          "internalType": "uint256",
          "name": "proposalId",
          "type": "uint256"
        },
        {
          "indexed": false,
          "internalType": "bool",
          "name": "support",
          "type": "bool"
        }
      ],
      "name": "Vote",
      "type": "event"
    },
    {
      "anonymous": false,
      "inputs": [
        {
          "indexed": true,
          "internalType": "address",
          "name": "user",
          "type": "address"
        },
        {
          "indexed": false,
          "internalType": "address",
          "name": "token",
          "type": "address"
        },
        {
          "indexed": false,
          "internalType": "uint256",
          "name": "amount",
          "type": "uint256"
        }
      ],
      "name": "YieldFarm",
      "type": "event"
    },
    {
      "inputs": [
        {
          "internalType": "address",
          "name": "_token",
          "type": "address"
        },
        {
          "internalType": "uint256",
          "name": "_amount",
          "type": "uint256"
        },
        {
          "internalType": "address",
          "name": "_collateralToken",
          "type": "address"
        },
        {
          "internalType": "uint256",
          "name": "_collateralAmount",
          "type": "uint256"
        }
      ],
      "name": "borrow",
      "outputs": [],
      "stateMutability": "nonpayable",
      "type": "function"
    },
    {
      "inputs": [
        {
          "internalType": "address",
          "name": "_token",
          "type": "address"
        },
        {
          "internalType": "uint256",
          "name": "_amount",
          "type": "uint256"
        }
      ],
      "name": "buy",
      "outputs": [],
      "stateMutability": "nonpayable",
      "type": "function"
    },
    {
      "inputs": [],
      "name": "coreContract",
      "outputs": [
        {
          "internalType": "contract EtherRiftCore",
          "name": "",
          "type": "address"
        }
      ],
      "stateMutability": "view",
      "type": "function"
    },
    {
      "inputs": [
        {
          "internalType": "address",
          "name": "_token",
          "type": "address"
        },
        {
          "internalType": "uint256",
          "name": "_amount",
          "type": "uint256"
        }
      ],
      "name": "flashLoan",
      "outputs": [],
      "stateMutability": "nonpayable",
      "type": "function"
    },
    {
      "inputs": [
        {
          "internalType": "address",
          "name": "_token",
          "type": "address"
        },
        {
          "internalType": "uint256",
          "name": "_amount",
          "type": "uint256"
        }
      ],
      "name": "lend",
      "outputs": [],
      "stateMutability": "nonpayable",
      "type": "function"
    },
    {
      "inputs": [
        {
          "internalType": "address",
          "name": "_tokenA",
          "type": "address"
        },
        {
          "internalType": "address",
          "name": "_tokenB",
          "type": "address"
        },
        {
          "internalType": "uint256",
          "name": "_amountA",
          "type": "uint256"
        },
        {
          "internalType": "uint256",
          "name": "_amountB",
          "type": "uint256"
        }
      ],
      "name": "provideLiquidity",
      "outputs": [],
      "stateMutability": "nonpayable",
      "type": "function"
    },
    {
      "inputs": [
        {
          "internalType": "address",
          "name": "_tokenA",
          "type": "address"
        },
        {
          "internalType": "address",
          "name": "_tokenB",
          "type": "address"
        },
        {
          "internalType": "uint256",
          "name": "_lpAmount",
          "type": "uint256"
        }
      ],
      "name": "removeLiquidity",
      "outputs": [],
      "stateMutability": "nonpayable",
      "type": "function"
    },
    {
      "inputs": [
        {
          "internalType": "address",
          "name": "_token",
          "type": "address"
        },
        {
          "internalType": "uint256",
          "name": "_amount",
          "type": "uint256"
        }
      ],
      "name": "repay",
      "outputs": [],
      "stateMutability": "nonpayable",
      "type": "function"
    },
    {
      "inputs": [
        {
          "internalType": "address",
          "name": "_token",
          "type": "address"
        },
        {
          "internalType": "uint256",
          "name": "_amount",
          "type": "uint256"
        }
      ],
      "name": "sell",
      "outputs": [],
      "stateMutability": "nonpayable",
      "type": "function"
    },
    {
      "inputs": [
        {
          "internalType": "address",
          "name": "_token",
          "type": "address"
        },
        {
          "internalType": "uint256",
          "name": "_amount",
          "type": "uint256"
        }
      ],
      "name": "stake",
      "outputs": [],
      "stateMutability": "nonpayable",
      "type": "function"
    },
    {
      "inputs": [
        {
          "internalType": "address",
          "name": "_fromToken",
          "type": "address"
        },
        {
          "internalType": "address",
          "name": "_toToken",
          "type": "address"
        },
        {
          "internalType": "uint256",
          "name": "_amount",
          "type": "uint256"
        }
      ],
      "name": "swap",
      "outputs": [],
      "stateMutability": "nonpayable",
      "type": "function"
    },
    {
      "inputs": [
        {
          "internalType": "address",
          "name": "_token",
          "type": "address"
        },
        {
          "internalType": "uint256",
          "name": "_amount",
          "type": "uint256"
        }
      ],
      "name": "unstake",
      "outputs": [],
      "stateMutability": "nonpayable",
      "type": "function"
    },
    {
      "inputs": [
        {
          "internalType": "uint256",
          "name": "_proposalId",
          "type": "uint256"
        },
        {
          "internalType": "bool",
          "name": "_support",
          "type": "bool"
        }
      ],
      "name": "vote",
      "outputs": [],
      "stateMutability": "nonpayable",
      "type": "function"
    },
    {
      "inputs": [
        {
          "internalType": "address",
          "name": "_token",
          "type": "address"
        },
        {
          "internalType": "uint256",
          "name": "_amount",
          "type": "uint256"
        }
      ],
      "name": "yieldFarm",
      "outputs": [],
      "stateMutability": "nonpayable",
      "type": "function"
    }
  ],
  "bytecode": "0x60806040523480156200001157600080fd5b50604051620030713803806200307183398101604081905262000034916200005a565b600080546001600160a01b0319166001600160a01b03929092169190911790556200008c565b6000602082840312156200006d57600080fd5b81516001600160a01b03811681146200008557600080fd5b9392505050565b612fd5806200009c6000396000f3fe608060405234801561001057600080fd5b50600436106100ea5760003560e01c8063c2a672e01161008c578063d028053911610066578063d0280539146101af578063d752fab2146101c2578063df791e50146101d5578063e80db5db146101e857600080fd5b8063c2a672e014610176578063c9d27afe14610189578063cce7ec131461019c57600080fd5b806375b45179116100c857806375b451791461012a5780639d9e465c1461013d578063a2fb342d14610150578063adc9772e1461016357600080fd5b806322867d78146100ef57806337b32604146101045780636c197ff514610117575b600080fd5b6101026100fd366004612c73565b610217565b005b610102610112366004612c73565b61056f565b610102610125366004612c73565b6107c2565b610102610138366004612c9f565b610a27565b61010261014b366004612c73565b610e85565b61010261015e366004612c73565b61113a565b610102610171366004612c73565b611317565b610102610184366004612c73565b61155d565b610102610197366004612cf3565b6117d3565b6101026101aa366004612c73565b61194b565b6101026101bd366004612d23565b611bca565b6101026101d0366004612d6b565b61244d565b6101026101e3366004612d6b565b6126f0565b6000546101fb906001600160a01b031681565b6040516001600160a01b03909116815260200160405180910390f35b6000546040516375151b6360e01b81526001600160a01b038085166004830152849216906375151b6390602401602060405180830381865afa158015610261573d6000803e3d6000fd5b505050506040513d601f19601f820116820180604052508101906102859190612dac565b6102aa5760405162461bcd60e51b81526004016102a190612dd0565b60405180910390fd5b600082116102ca5760405162461bcd60e51b81526004016102a190612dfd565b600054604051636805d6ad60e01b815283916001600160a01b031690636805d6ad906102fc9033908890600401612e34565b602060405180830381865afa158015610319573d6000803e3d6000fd5b505050506040513d601f19601f8201168201806040525081019061033d9190612e4e565b101561038b5760405162461bcd60e51b815260206004820152601c60248201527f496e73756666696369656e7420746f6b656e7320746f2072657061790000000060448201526064016102a1565b60008054604051635150076b60e11b81526001600160a01b039091169063a2a00ed6906103be9033908890600401612e34565b602060405180830381865afa1580156103db573d6000803e3d6000fd5b505050506040513d601f19601f820116820180604052508101906103ff9190612e4e565b9050600081116104445760405162461bcd60e51b815260206004820152601060248201526f4e6f206465627420746f20726570617960801b60448201526064016102a1565b60008184116104535783610455565b815b6000805460405163a3e00e3160e01b81529293506001600160a01b03169163a3e00e319161048c9133918a91879190600401612e67565b600060405180830381600087803b1580156104a657600080fd5b505af11580156104ba573d6000803e3d6000fd5b50506000805460405163b4334e3f60e01b81526001600160a01b03909116935063b4334e3f92506104f39133918a918791600401612e67565b600060405180830381600087803b15801561050d57600080fd5b505af1158015610521573d6000803e3d6000fd5b50505050336001600160a01b03167f05f2eeda0e08e4b437f487c8d7d29b14537d15e3488170dc3de5dbdf8dac46848683604051610560929190612e90565b60405180910390a25050505050565b6000546040516375151b6360e01b81526001600160a01b038085166004830152849216906375151b6390602401602060405180830381865afa1580156105b9573d6000803e3d6000fd5b505050506040513d601f19601f820116820180604052508101906105dd9190612dac565b6105f95760405162461bcd60e51b81526004016102a190612dd0565b600082116106195760405162461bcd60e51b81526004016102a190612dfd565b600054604051636805d6ad60e01b815283916001600160a01b031690636805d6ad9061064b9033908890600401612e34565b602060405180830381865afa158015610668573d6000803e3d6000fd5b505050506040513d601f19601f8201168201806040525081019061068c9190612e4e565b10156106aa5760405162461bcd60e51b81526004016102a190612ea9565b6000805460405163a3e00e3160e01b81526001600160a01b039091169163a3e00e31916106df91339188918891600401612e67565b600060405180830381600087803b1580156106f957600080fd5b505af115801561070d573d6000803e3d6000fd5b5050600054604051632a5631e360e11b81526001600160a01b0390911692506354ac63c6915061074890339087908790600190600401612e67565b600060405180830381600087803b15801561076257600080fd5b505af1158015610776573d6000803e3d6000fd5b50505050336001600160a01b03167f3dddafbf854521e372b526401357f87798abc86ffb5b10fb271f01dbbe000d7b84846040516107b5929190612e90565b60405180910390a2505050565b6000546040516375151b6360e01b81526001600160a01b038085166004830152849216906375151b6390602401602060405180830381865afa15801561080c573d6000803e3d6000fd5b505050506040513d601f19601f820116820180604052508101906108309190612dac565b61084c5760405162461bcd60e51b81526004016102a190612dd0565b6000821161086c5760405162461bcd60e51b81526004016102a190612dfd565b600054604051636805d6ad60e01b815283916001600160a01b031690636805d6ad9061089e9033908890600401612e34565b602060405180830381865afa1580156108bb573d6000803e3d6000fd5b505050506040513d601f19601f820116820180604052508101906108df9190612e4e565b10156108fd5760405162461bcd60e51b81526004016102a190612ea9565b60006109098484612b3d565b6000805460405163a3e00e3160e01b81529293506001600160a01b03169163a3e00e31916109409133918991899190600401612e67565b600060405180830381600087803b15801561095a57600080fd5b505af115801561096e573d6000803e3d6000fd5b505060005460405163a3e00e3160e01b81526001600160a01b03909116925063a3e00e3191506109aa9033906002908690600190600401612e67565b600060405180830381600087803b1580156109c457600080fd5b505af11580156109d8573d6000803e3d6000fd5b50505050336001600160a01b03167fa082022e93cfcd9f1da5f9236718053910f7e840da080c789c7845698dc032ff858584604051610a1993929190612ed6565b60405180910390a250505050565b6000546040516375151b6360e01b81526001600160a01b038087166004830152869216906375151b6390602401602060405180830381865afa158015610a71573d6000803e3d6000fd5b505050506040513d601f19601f82011682018060405250810190610a959190612dac565b610ab15760405162461bcd60e51b81526004016102a190612dd0565b6000546040516375151b6360e01b81526001600160a01b038087166004830152869216906375151b6390602401602060405180830381865afa158015610afb573d6000803e3d6000fd5b505050506040513d601f19601f82011682018060405250810190610b1f9190612dac565b610b3b5760405162461bcd60e51b81526004016102a190612dd0565b600084118015610b4b5750600083115b610b975760405162461bcd60e51b815260206004820152601e60248201527f416d6f756e7473206d7573742062652067726561746572207468616e2030000060448201526064016102a1565b846001600160a01b0316866001600160a01b031603610bf85760405162461bcd60e51b815260206004820152601860248201527f546f6b656e73206d75737420626520646966666572656e74000000000000000060448201526064016102a1565b600054604051636805d6ad60e01b815285916001600160a01b031690636805d6ad90610c2a9033908b90600401612e34565b602060405180830381865afa158015610c47573d6000803e3d6000fd5b505050506040513d601f19601f82011682018060405250810190610c6b9190612e4e565b1015610cb05760405162461bcd60e51b8152602060048201526014602482015273496e73756666696369656e7420746f6b656e204160601b60448201526064016102a1565b600054604051636805d6ad60e01b815284916001600160a01b031690636805d6ad90610ce29033908a90600401612e34565b602060405180830381865afa158015610cff573d6000803e3d6000fd5b505050506040513d601f19601f82011682018060405250810190610d239190612e4e565b1015610d685760405162461bcd60e51b815260206004820152601460248201527324b739bab33334b1b4b2b73a103a37b5b2b7102160611b60448201526064016102a1565b6000805460405163a3e00e3160e01b81526001600160a01b039091169163a3e00e3191610d9d9133918b918a91600401612e67565b600060405180830381600087803b158015610db757600080fd5b505af1158015610dcb573d6000803e3d6000fd5b50506000805460405163a3e00e3160e01b81526001600160a01b03909116935063a3e00e319250610e049133918a918991600401612e67565b600060405180830381600087803b158015610e1e57600080fd5b505af1158015610e32573d6000803e3d6000fd5b50505050336001600160a01b03167ff9f06661df7cae8b35b7e818cf4fee24abfd2c8fb2a75249275e7436e7aa8b1d87878787604051610e759493929190612ef7565b60405180910390a2505050505050565b6000546040516375151b6360e01b81526001600160a01b038085166004830152849216906375151b6390602401602060405180830381865afa158015610ecf573d6000803e3d6000fd5b505050506040513d601f19601f82011682018060405250810190610ef39190612dac565b610f0f5760405162461bcd60e51b81526004016102a190612dd0565b60008211610f2f5760405162461bcd60e51b81526004016102a190612dfd565b60006103e8610f3f846001612f36565b610f499190612f4d565b90506000610f578285612f6f565b600054604051636805d6ad60e01b815291925082916001600160a01b0390911690636805d6ad90610f8e9033908a90600401612e34565b602060405180830381865afa158015610fab573d6000803e3d6000fd5b505050506040513d601f19601f82011682018060405250810190610fcf9190612e4e565b101561102d5760405162461bcd60e51b815260206004820152602760248201527f496e73756666696369656e7420746f6b656e7320746f20726570617920666c6160448201526639b4103637b0b760c91b60648201526084016102a1565b60005460405163a3e00e3160e01b81526001600160a01b039091169063a3e00e319061106490339089908990600190600401612e67565b600060405180830381600087803b15801561107e57600080fd5b505af1158015611092573d6000803e3d6000fd5b50506000805460405163a3e00e3160e01b81526001600160a01b03909116935063a3e00e3192506110cb9133918a918791600401612e67565b600060405180830381600087803b1580156110e557600080fd5b505af11580156110f9573d6000803e3d6000fd5b50505050336001600160a01b03167f0d7d75e01ab95780d3cd1c8ec0dd6c2ce19e3a20427eec8bf53283b6fb8e95f086868560405161056093929190612ed6565b6000546040516375151b6360e01b81526001600160a01b038085166004830152849216906375151b6390602401602060405180830381865afa158015611184573d6000803e3d6000fd5b505050506040513d601f19601f820116820180604052508101906111a89190612dac565b6111c45760405162461bcd60e51b81526004016102a190612dd0565b600082116111e45760405162461bcd60e51b81526004016102a190612dfd565b600054604051636805d6ad60e01b815283916001600160a01b031690636805d6ad906112169033908890600401612e34565b602060405180830381865afa158015611233573d6000803e3d6000fd5b505050506040513d601f19601f820116820180604052508101906112579190612e4e565b10156112755760405162461bcd60e51b81526004016102a190612ea9565b6000805460405163a3e00e3160e01b81526001600160a01b039091169163a3e00e31916112aa91339188918891600401612e67565b600060405180830381600087803b1580156112c457600080fd5b505af11580156112d8573d6000803e3d6000fd5b50505050336001600160a01b03167f11dd72a5d477527ee1cbe309212bb368745a98cf1dc3befcac7eef4988a957c284846040516107b5929190612e90565b6000546040516375151b6360e01b81526001600160a01b038085166004830152849216906375151b6390602401602060405180830381865afa158015611361573d6000803e3d6000fd5b505050506040513d601f19601f820116820180604052508101906113859190612dac565b6113a15760405162461bcd60e51b81526004016102a190612dd0565b600082116113c15760405162461bcd60e51b81526004016102a190612dfd565b600054604051636805d6ad60e01b815283916001600160a01b031690636805d6ad906113f39033908890600401612e34565b602060405180830381865afa158015611410573d6000803e3d6000fd5b505050506040513d601f19601f820116820180604052508101906114349190612e4e565b10156114525760405162461bcd60e51b81526004016102a190612ea9565b6000805460405163a3e00e3160e01b81526001600160a01b039091169163a3e00e319161148791339188918891600401612e67565b600060405180830381600087803b1580156114a157600080fd5b505af11580156114b5573d6000803e3d6000fd5b5050600054604051632a5631e360e11b81526001600160a01b0390911692506354ac63c691506114f090339087908790600190600401612e67565b600060405180830381600087803b15801561150a57600080fd5b505af115801561151e573d6000803e3d6000fd5b50505050336001600160a01b03167f99039fcf0a98f484616c5196ee8b2ecfa971babf0b519848289ea4db381f85f784846040516107b5929190612e90565b6000546040516375151b6360e01b81526001600160a01b038085166004830152849216906375151b6390602401602060405180830381865afa1580156115a7573d6000803e3d6000fd5b505050506040513d601f19601f820116820180604052508101906115cb9190612dac565b6115e75760405162461bcd60e51b81526004016102a190612dd0565b600082116116075760405162461bcd60e51b81526004016102a190612dfd565b60005460405163cabf249d60e01b815283916001600160a01b03169063cabf249d906116399033908890600401612e34565b602060405180830381865afa158015611656573d6000803e3d6000fd5b505050506040513d601f19601f8201168201806040525081019061167a9190612e4e565b10156116c85760405162461bcd60e51b815260206004820152601a60248201527f496e73756666696369656e74207374616b656420746f6b656e7300000000000060448201526064016102a1565b60008054604051632a5631e360e11b81526001600160a01b03909116916354ac63c6916116fd91339188918891600401612e67565b600060405180830381600087803b15801561171757600080fd5b505af115801561172b573d6000803e3d6000fd5b505060005460405163a3e00e3160e01b81526001600160a01b03909116925063a3e00e31915061176690339087908790600190600401612e67565b600060405180830381600087803b15801561178057600080fd5b505af1158015611794573d6000803e3d6000fd5b50505050336001600160a01b03167f390b1276974b9463e5d66ab10df69b6f3d7b930eb066a0e66df327edd2cc811c84846040516107b5929190612e90565b60008060009054906101000a90046001600160a01b03166001600160a01b031663347a0ef06040518163ffffffff1660e01b8152600401602060405180830381865afa158015611827573d6000803e3d6000fd5b505050506040513d601f19601f8201168201806040525081019061184b9190612f82565b6040516370a0823160e01b81523360048201526001600160a01b0391909116906370a0823190602401602060405180830381865afa158015611891573d6000803e3d6000fd5b505050506040513d601f19601f820116820180604052508101906118b59190612e4e565b9050600081116119125760405162461bcd60e51b815260206004820152602260248201527f4e6f20616368696576656d656e7420746f6b656e7320746f20766f74652077696044820152610e8d60f31b60648201526084016102a1565b60408051848152831515602082015233917f8d85a70fd2c5d140a4a01143492d27ff82cfad4cead313e66c53f39b0feb5e0f91016107b5565b6000546040516375151b6360e01b81526001600160a01b038085166004830152849216906375151b6390602401602060405180830381865afa158015611995573d6000803e3d6000fd5b505050506040513d601f19601f820116820180604052508101906119b99190612dac565b6119d55760405162461bcd60e51b81526004016102a190612dd0565b600082116119f55760405162461bcd60e51b81526004016102a190612dfd565b6000611a018484612bd6565b600054604051636805d6ad60e01b815291925082916001600160a01b0390911690636805d6ad90611a39903390600290600401612e34565b602060405180830381865afa158015611a56573d6000803e3d6000fd5b505050506040513d601f19601f82011682018060405250810190611a7a9190612e4e565b1015611abc5760405162461bcd60e51b8152602060048201526011602482015270496e73756666696369656e74205553444360781b60448201526064016102a1565b6000805460405163a3e00e3160e01b81526001600160a01b039091169163a3e00e3191611af29133916002918791600401612e67565b600060405180830381600087803b158015611b0c57600080fd5b505af1158015611b20573d6000803e3d6000fd5b505060005460405163a3e00e3160e01b81526001600160a01b03909116925063a3e00e319150611b5b90339088908890600190600401612e67565b600060405180830381600087803b158015611b7557600080fd5b505af1158015611b89573d6000803e3d6000fd5b50505050336001600160a01b03167f89f5adc174562e07c9c9b1cae7109bbecb21cf9d1b2847e550042b8653c54a0e858584604051610a1993929190612ed6565b6000546040516375151b6360e01b81526001600160a01b038087166004830152869216906375151b6390602401602060405180830381865afa158015611c14573d6000803e3d6000fd5b505050506040513d601f19601f82011682018060405250810190611c389190612dac565b611c545760405162461bcd60e51b81526004016102a190612dd0565b60008411611c745760405162461bcd60e51b81526004016102a190612dfd565b60008211611cd55760405162461bcd60e51b815260206004820152602860248201527f436f6c6c61746572616c20616d6f756e74206d75737420626520677265617465604482015267072207468616e20360c41b60648201526084016102a1565b60008060009054906101000a90046001600160a01b03166001600160a01b031663347a0ef06040518163ffffffff1660e01b8152600401602060405180830381865afa158015611d29573d6000803e3d6000fd5b505050506040513d601f19601f82011682018060405250810190611d4d9190612f82565b6001600160a01b0316846001600160a01b031614905080611df2576000546040516375151b6360e01b81526001600160a01b038681166004830152909116906375151b6390602401602060405180830381865afa158015611db2573d6000803e3d6000fd5b505050506040513d601f19601f82011682018060405250810190611dd69190612dac565b611df25760405162461bcd60e51b81526004016102a190612dd0565b80611e7157600054604051636805d6ad60e01b815284916001600160a01b031690636805d6ad90611e299033908990600401612e34565b602060405180830381865afa158015611e46573d6000803e3d6000fd5b505050506040513d601f19601f82011682018060405250810190611e6a9190612e4e565b1015611f4b565b60005460408051630347a0ef60e41b8152905185926001600160a01b03169163347a0ef09160048083019260209291908290030181865afa158015611eba573d6000803e3d6000fd5b505050506040513d601f19601f82011682018060405250810190611ede9190612f82565b6040516370a0823160e01b81523360048201526001600160a01b0391909116906370a0823190602401602060405180830381865afa158015611f24573d6000803e3d6000fd5b505050506040513d601f19601f82011682018060405250810190611f489190612e4e565b10155b611f975760405162461bcd60e51b815260206004820152601760248201527f496e73756666696369656e7420636f6c6c61746572616c00000000000000000060448201526064016102a1565b60008115611fa657508261201c565b600054604051636d34cd1760e01b81526001600160a01b0390911690636d34cd1790611fd89088908890600401612e90565b602060405180830381865afa158015611ff5573d6000803e3d6000fd5b505050506040513d601f19601f820116820180604052508101906120199190612e4e565b90505b60008054604051636d34cd1760e01b81526001600160a01b0390911690636d34cd179061204f908b908b90600401612e90565b602060405180830381865afa15801561206c573d6000803e3d6000fd5b505050506040513d601f19601f820116820180604052508101906120909190612e4e565b9050606461209f826096612f36565b6120a99190612f4d565b8210156120f85760405162461bcd60e51b815260206004820152601e60248201527f496e73756666696369656e7420636f6c6c61746572616c697a6174696f6e000060448201526064016102a1565b821561225b5760008054906101000a90046001600160a01b03166001600160a01b031663347a0ef06040518163ffffffff1660e01b8152600401602060405180830381865afa15801561214f573d6000803e3d6000fd5b505050506040513d601f19601f820116820180604052508101906121739190612f82565b6040516323b872dd60e01b8152336004820152306024820152604481018790526001600160a01b0391909116906323b872dd906064016020604051808303816000875af11580156121c8573d6000803e3d6000fd5b505050506040513d601f19601f820116820180604052508101906121ec9190612dac565b50600054604051632a35f83760e11b81526001600160a01b039091169063546bf06e906122249033908a908a90600190600401612e67565b600060405180830381600087803b15801561223e57600080fd5b505af1158015612252573d6000803e3d6000fd5b5050505061232c565b6000805460405163a3e00e3160e01b81526001600160a01b039091169163a3e00e31916122909133918b918b91600401612e67565b600060405180830381600087803b1580156122aa57600080fd5b505af11580156122be573d6000803e3d6000fd5b5050600054604051632a35f83760e11b81526001600160a01b03909116925063546bf06e91506122f99033908a908a90600190600401612e67565b600060405180830381600087803b15801561231357600080fd5b505af1158015612327573d6000803e3d6000fd5b505050505b60005460405163a3e00e3160e01b81526001600160a01b039091169063a3e00e31906123639033908c908c90600190600401612e67565b600060405180830381600087803b15801561237d57600080fd5b505af1158015612391573d6000803e3d6000fd5b505060005460405163b4334e3f60e01b81526001600160a01b03909116925063b4334e3f91506123cc9033908c908c90600190600401612e67565b600060405180830381600087803b1580156123e657600080fd5b505af11580156123fa573d6000803e3d6000fd5b50505050336001600160a01b03167fc1561b330e73faa7d5d1ac03c968d8f359b0191ccdb9cc002cf7d8eb6ae038cb89898560405161243b93929190612ed6565b60405180910390a25050505050505050565b6000546040516375151b6360e01b81526001600160a01b038086166004830152859216906375151b6390602401602060405180830381865afa158015612497573d6000803e3d6000fd5b505050506040513d601f19601f820116820180604052508101906124bb9190612dac565b6124d75760405162461bcd60e51b81526004016102a190612dd0565b6000546040516375151b6360e01b81526001600160a01b038086166004830152859216906375151b6390602401602060405180830381865afa158015612521573d6000803e3d6000fd5b505050506040513d601f19601f820116820180604052508101906125459190612dac565b6125615760405162461bcd60e51b81526004016102a190612dd0565b600083116125b15760405162461bcd60e51b815260206004820181905260248201527f4c5020616d6f756e74206d7573742062652067726561746572207468616e203060448201526064016102a1565b60006125be600285612f4d565b905060006125cd600286612f4d565b60005460405163a3e00e3160e01b81529192506001600160a01b03169063a3e00e31906126059033908b908790600190600401612e67565b600060405180830381600087803b15801561261f57600080fd5b505af1158015612633573d6000803e3d6000fd5b505060005460405163a3e00e3160e01b81526001600160a01b03909116925063a3e00e31915061266e9033908a908690600190600401612e67565b600060405180830381600087803b15801561268857600080fd5b505af115801561269c573d6000803e3d6000fd5b50505050336001600160a01b03167fa8dbaaebbb025c88e9e34c84635cd8238043556e9af43fb161508c898a8e1ef9888885856040516126df9493929190612ef7565b60405180910390a250505050505050565b6000546040516375151b6360e01b81526001600160a01b038086166004830152859216906375151b6390602401602060405180830381865afa15801561273a573d6000803e3d6000fd5b505050506040513d601f19601f8201168201806040525081019061275e9190612dac565b61277a5760405162461bcd60e51b81526004016102a190612dd0565b6000546040516375151b6360e01b81526001600160a01b038086166004830152859216906375151b6390602401602060405180830381865afa1580156127c4573d6000803e3d6000fd5b505050506040513d601f19601f820116820180604052508101906127e89190612dac565b6128045760405162461bcd60e51b81526004016102a190612dd0565b600083116128245760405162461bcd60e51b81526004016102a190612dfd565b836001600160a01b0316856001600160a01b03160361287e5760405162461bcd60e51b815260206004820152601660248201527521b0b73737ba1039bbb0b81039b0b6b2903a37b5b2b760511b60448201526064016102a1565b600054604051636805d6ad60e01b815284916001600160a01b031690636805d6ad906128b09033908a90600401612e34565b602060405180830381865afa1580156128cd573d6000803e3d6000fd5b505050506040513d601f19601f820116820180604052508101906128f19190612e4e565b101561290f5760405162461bcd60e51b81526004016102a190612ea9565b60008054604051636d34cd1760e01b81526001600160a01b0390911690636d34cd17906129429089908890600401612e90565b602060405180830381865afa15801561295f573d6000803e3d6000fd5b505050506040513d601f19601f820116820180604052508101906129839190612e4e565b60008054604051630681320d60e51b81526001600160a01b0389811660048301529394509192169063d02641a090602401602060405180830381865afa1580156129d1573d6000803e3d6000fd5b505050506040513d601f19601f820116820180604052508101906129f59190612e4e565b612a0783670de0b6b3a7640000612f36565b612a119190612f4d565b90506103e8612a22826103e5612f36565b612a2c9190612f4d565b6000805460405163a3e00e3160e01b81529293506001600160a01b03169163a3e00e3191612a639133918c918b9190600401612e67565b600060405180830381600087803b158015612a7d57600080fd5b505af1158015612a91573d6000803e3d6000fd5b505060005460405163a3e00e3160e01b81526001600160a01b03909116925063a3e00e319150612acc9033908a908690600190600401612e67565b600060405180830381600087803b158015612ae657600080fd5b505af1158015612afa573d6000803e3d6000fd5b50505050336001600160a01b03167fcd3829a3813dc3cdd188fd3d01dcf3268c16be2fdd2dd21d0665418816e46062888888856040516126df9493929190612ef7565b60008054604051636d34cd1760e01b815282916001600160a01b031690636d34cd1790612b709087908790600401612e90565b602060405180830381865afa158015612b8d573d6000803e3d6000fd5b505050506040513d601f19601f82011682018060405250810190612bb19190612e4e565b90506103e8612bc2826103e5612f36565b612bcc9190612f4d565b9150505b92915050565b60008054604051636d34cd1760e01b815282916001600160a01b031690636d34cd1790612c099087908790600401612e90565b602060405180830381865afa158015612c26573d6000803e3d6000fd5b505050506040513d601f19601f82011682018060405250810190612c4a9190612e4e565b90506103e8612bc2826103eb612f36565b6001600160a01b0381168114612c7057600080fd5b50565b60008060408385031215612c8657600080fd5b8235612c9181612c5b565b946020939093013593505050565b60008060008060808587031215612cb557600080fd5b8435612cc081612c5b565b93506020850135612cd081612c5b565b93969395505050506040820135916060013590565b8015158114612c7057600080fd5b60008060408385031215612d0657600080fd5b823591506020830135612d1881612ce5565b809150509250929050565b60008060008060808587031215612d3957600080fd5b8435612d4481612c5b565b9350602085013592506040850135612d5b81612c5b565b9396929550929360600135925050565b600080600060608486031215612d8057600080fd5b8335612d8b81612c5b565b92506020840135612d9b81612c5b565b929592945050506040919091013590565b600060208284031215612dbe57600080fd5b8151612dc981612ce5565b9392505050565b602080825260139082015272151bdad95b881b9bdd081cdd5c1c1bdc9d1959606a1b604082015260600190565b6020808252601d908201527f416d6f756e74206d7573742062652067726561746572207468616e2030000000604082015260600190565b6001600160a01b0392831681529116602082015260400190565b600060208284031215612e6057600080fd5b5051919050565b6001600160a01b0394851681529290931660208301526040820152901515606082015260800190565b6001600160a01b03929092168252602082015260400190565b602080825260139082015272496e73756666696369656e7420746f6b656e7360681b604082015260600190565b6001600160a01b039390931683526020830191909152604082015260600190565b6001600160a01b0394851681529290931660208301526040820152606081019190915260800190565b634e487b7160e01b600052601160045260246000fd5b8082028115828204841417612bd057612bd0612f20565b600082612f6a57634e487b7160e01b600052601260045260246000fd5b500490565b80820180821115612bd057612bd0612f20565b600060208284031215612f9457600080fd5b8151612dc981612c5b56fea264697066735822122048c2e0ef10758e523ad8869d6be05261e7f17ed7497003eb8e75d42b4822922064736f6c63430008180033",
  "linkReferences": {},
  "deployedLinkReferences": {}
}